{
  "_format": "hh3-artifact-1",
  "contractName": "MonadStream",
  "sourceName": "contracts/MonadStream.sol",
  "abi": [
    {
      "inputs": [],
      "stateMutability": "payable",
      "type": "constructor"
    },
    {
      "anonymous": false,
      "inputs": [
        {
          "indexed": false,
          "internalType": "uint256",
          "name": "amount",
          "type": "uint256"
        }
      ],
      "name": "BudgetReplenished",
      "type": "event"
    },
    {
      "anonymous": false,
      "inputs": [
        {
          "indexed": false,
          "internalType": "uint256",
          "name": "cost",
          "type": "uint256"
        },
        {
          "indexed": false,
          "internalType": "uint256",
          "name": "remaining",
          "type": "uint256"
        }
      ],
      "name": "CostReported",
      "type": "event"
    },
    {
      "anonymous": false,
      "inputs": [
        {
          "indexed": false,
          "internalType": "uint256",
          "name": "totalSpent",
          "type": "uint256"
        }
      ],
      "name": "FuseTriggered",
      "type": "event"
    },
    {
      "inputs": [],
      "name": "getRemainingBudget",
      "outputs": [
        {
          "internalType": "uint256",
          "name": "",
          "type": "uint256"
        }
      ],
      "stateMutability": "view",
      "type": "function"
    },
    {
      "inputs": [],
      "name": "isFrozen",
      "outputs": [
        {
          "internalType": "bool",
          "name": "",
          "type": "bool"
        }
      ],
      "stateMutability": "view",
      "type": "function"
    },
    {
      "inputs": [],
      "name": "owner",
      "outputs": [
        {
          "internalType": "address",
          "name": "",
          "type": "address"
        }
      ],
      "stateMutability": "view",
      "type": "function"
    },
    {
      "inputs": [
        {
          "internalType": "uint256",
          "name": "cost",
          "type": "uint256"
        }
      ],
      "name": "reportConsumption",
      "outputs": [
        {
          "internalType": "bool",
          "name": "",
          "type": "bool"
        }
      ],
      "stateMutability": "nonpayable",
      "type": "function"
    },
    {
      "inputs": [],
      "name": "spentBudget",
      "outputs": [
        {
          "internalType": "uint256",
          "name": "",
          "type": "uint256"
        }
      ],
      "stateMutability": "view",
      "type": "function"
    },
    {
      "inputs": [],
      "name": "topUpBudget",
      "outputs": [],
      "stateMutability": "payable",
      "type": "function"
    },
    {
      "inputs": [],
      "name": "totalBudget",
      "outputs": [
        {
          "internalType": "uint256",
          "name": "",
          "type": "uint256"
        }
      ],
      "stateMutability": "view",
      "type": "function"
    }
  ],
  "bytecode": "0x6080604052335f806101000a81548173ffffffffffffffffffffffffffffffffffffffff021916908373ffffffffffffffffffffffffffffffffffffffff160217905550346001819055505f60035f6101000a81548160ff0219169083151502179055506107bd806100705f395ff3fe60806040526004361061006f575f3560e01c80638da5cb5b1161004d5780638da5cb5b146100d1578063bb4f58d6146100fb578063c78da39a14610125578063db5b15501461014f5761006f565b806333eeb147146100735780633c0616b61461009d57806377a15b61146100a7575b5f80fd5b34801561007e575f80fd5b5061008761018b565b60405161009491906104cc565b60405180910390f35b6100a561019d565b005b3480156100b2575f80fd5b506100bb6102a1565b6040516100c891906104fd565b60405180910390f35b3480156100dc575f80fd5b506100e56102cb565b6040516100f29190610555565b60405180910390f35b348015610106575f80fd5b5061010f6102ee565b60405161011c91906104fd565b60405180910390f35b348015610130575f80fd5b506101396102f4565b60405161014691906104fd565b60405180910390f35b34801561015a575f80fd5b506101756004803603810190610170919061059c565b6102fa565b60405161018291906104cc565b60405180910390f35b60035f9054906101000a900460ff1681565b5f8054906101000a900473ffffffffffffffffffffffffffffffffffffffff1673ffffffffffffffffffffffffffffffffffffffff163373ffffffffffffffffffffffffffffffffffffffff161461022a576040517f08c379a000000000000000000000000000000000000000000000000000000000815260040161022190610621565b60405180910390fd5b3460015f82825461023b919061066c565b925050819055506001546002541015610268575f60035f6101000a81548160ff0219169083151502179055505b7fddf991a42afcd6824546326396e750152d976f13a5d5e75cda8cc2e329024ac13460405161029791906104fd565b60405180910390a1565b5f600154600254106102b5575f90506102c8565b6002546001546102c5919061069f565b90505b90565b5f8054906101000a900473ffffffffffffffffffffffffffffffffffffffff1681565b60025481565b60015481565b5f805f9054906101000a900473ffffffffffffffffffffffffffffffffffffffff1673ffffffffffffffffffffffffffffffffffffffff163373ffffffffffffffffffffffffffffffffffffffff1614610389576040517f08c379a000000000000000000000000000000000000000000000000000000000815260040161038090610621565b60405180910390fd5b60035f9054906101000a900460ff16156103d8576040517f08c379a00000000000000000000000000000000000000000000000000000000081526004016103cf90610742565b60405180910390fd5b8160025f8282546103e9919061066c565b925050819055506001546002541061045357600160035f6101000a81548160ff0219169083151502179055507ff9bcbd5997b13ba40f7ad328498c044add80bc65b7d3d88b8d49798c751bd56060025460405161044691906104fd565b60405180910390a161049c565b7f05acd603b95bb3fc0d1a0f4cae66004847707ba2b8fb7627607d7641cf51f1fb82600254600154610485919061069f565b604051610493929190610760565b60405180910390a15b60035f9054906101000a900460ff169050919050565b5f8115159050919050565b6104c6816104b2565b82525050565b5f6020820190506104df5f8301846104bd565b92915050565b5f819050919050565b6104f7816104e5565b82525050565b5f6020820190506105105f8301846104ee565b92915050565b5f73ffffffffffffffffffffffffffffffffffffffff82169050919050565b5f61053f82610516565b9050919050565b61054f81610535565b82525050565b5f6020820190506105685f830184610546565b92915050565b5f80fd5b61057b816104e5565b8114610585575f80fd5b50565b5f8135905061059681610572565b92915050565b5f602082840312156105b1576105b061056e565b5b5f6105be84828501610588565b91505092915050565b5f82825260208201905092915050565b7f4e6f742074686520636f6e7472616374206f776e6572000000000000000000005f82015250565b5f61060b6016836105c7565b9150610616826105d7565b602082019050919050565b5f6020820190508181035f830152610638816105ff565b9050919050565b7f4e487b71000000000000000000000000000000000000000000000000000000005f52601160045260245ffd5b5f610676826104e5565b9150610681836104e5565b92508282019050808211156106995761069861063f565b5b92915050565b5f6106a9826104e5565b91506106b4836104e5565b92508282039050818111156106cc576106cb61063f565b5b92915050565b7f41495f465553455f5452494747455245443a2042756467657420636f6d706c655f8201527f74656c7920657868617573746564210000000000000000000000000000000000602082015250565b5f61072c602f836105c7565b9150610737826106d2565b604082019050919050565b5f6020820190508181035f83015261075981610720565b9050919050565b5f6040820190506107735f8301856104ee565b61078060208301846104ee565b939250505056fea26469706673582212209bf801de540cb5e1c1e1f9e8cc65c1f92e02ea47a6eb0f0097a49d045017baeb64736f6c63430008180033",
  "linkReferences": {},
  "deployedLinkReferences": {},
  "immutableReferences": {},
  "inputSourceName": "project/contracts/MonadStream.sol",
  "buildInfoId": "solc-0_8_24-83266c21ce61b8445f0a161988bfdf7d7641925b"
}